{
  "_format": "hh-sol-artifact-1",
  "contractName": "NumbersNFT",
  "sourceName": "contracts/NumbersNFT.sol",
  "abi": [
    {
      "inputs": [
        {
          "internalType": "uint256[10]",
          "name": "Initial",
          "type": "uint256[10]"
        }
      ],
      "stateMutability": "nonpayable",
      "type": "constructor"
    },
    {
      "anonymous": false,
      "inputs": [
        {
          "indexed": true,
          "internalType": "address",
          "name": "owner",
          "type": "address"
        },
        {
          "indexed": true,
          "internalType": "address",
          "name": "approved",
          "type": "address"
        },
        {
          "indexed": true,
          "internalType": "uint256",
          "name": "tokenId",
          "type": "uint256"
        }
      ],
      "name": "Approval",
      "type": "event"
    },
    {
      "anonymous": false,
      "inputs": [
        {
          "indexed": true,
          "internalType": "address",
          "name": "owner",
          "type": "address"
        },
        {
          "indexed": true,
          "internalType": "address",
          "name": "operator",
          "type": "address"
        },
        {
          "indexed": false,
          "internalType": "bool",
          "name": "approved",
          "type": "bool"
        }
      ],
      "name": "ApprovalForAll",
      "type": "event"
    },
    {
      "anonymous": false,
      "inputs": [
        {
          "indexed": true,
          "internalType": "address",
          "name": "from",
          "type": "address"
        },
        {
          "indexed": true,
          "internalType": "address",
          "name": "to",
          "type": "address"
        },
        {
          "indexed": true,
          "internalType": "uint256",
          "name": "tokenId",
          "type": "uint256"
        }
      ],
      "name": "Transfer",
      "type": "event"
    },
    {
      "inputs": [
        {
          "internalType": "address",
          "name": "to",
          "type": "address"
        },
        {
          "internalType": "uint256",
          "name": "tokenId",
          "type": "uint256"
        }
      ],
      "name": "approve",
      "outputs": [],
      "stateMutability": "nonpayable",
      "type": "function"
    },
    {
      "inputs": [
        {
          "internalType": "address",
          "name": "owner",
          "type": "address"
        }
      ],
      "name": "balanceOf",
      "outputs": [
        {
          "internalType": "uint256",
          "name": "",
          "type": "uint256"
        }
      ],
      "stateMutability": "view",
      "type": "function"
    },
    {
      "inputs": [
        {
          "internalType": "uint256",
          "name": "tokenId",
          "type": "uint256"
        }
      ],
      "name": "getApproved",
      "outputs": [
        {
          "internalType": "address",
          "name": "",
          "type": "address"
        }
      ],
      "stateMutability": "view",
      "type": "function"
    },
    {
      "inputs": [
        {
          "internalType": "uint256",
          "name": "tokenId",
          "type": "uint256"
        }
      ],
      "name": "getText",
      "outputs": [
        {
          "internalType": "string",
          "name": "",
          "type": "string"
        }
      ],
      "stateMutability": "view",
      "type": "function"
    },
    {
      "inputs": [
        {
          "internalType": "address",
          "name": "owner",
          "type": "address"
        },
        {
          "internalType": "address",
          "name": "operator",
          "type": "address"
        }
      ],
      "name": "isApprovedForAll",
      "outputs": [
        {
          "internalType": "bool",
          "name": "",
          "type": "bool"
        }
      ],
      "stateMutability": "view",
      "type": "function"
    },
    {
      "inputs": [],
      "name": "lastMintedInBlock",
      "outputs": [
        {
          "internalType": "uint256",
          "name": "",
          "type": "uint256"
        }
      ],
      "stateMutability": "view",
      "type": "function"
    },
    {
      "inputs": [],
      "name": "mint",
      "outputs": [],
      "stateMutability": "nonpayable",
      "type": "function"
    },
    {
      "inputs": [],
      "name": "name",
      "outputs": [
        {
          "internalType": "string",
          "name": "",
          "type": "string"
        }
      ],
      "stateMutability": "view",
      "type": "function"
    },
    {
      "inputs": [
        {
          "internalType": "uint256",
          "name": "tokenId",
          "type": "uint256"
        }
      ],
      "name": "ownerOf",
      "outputs": [
        {
          "internalType": "address",
          "name": "",
          "type": "address"
        }
      ],
      "stateMutability": "view",
      "type": "function"
    },
    {
      "inputs": [
        {
          "internalType": "address",
          "name": "from",
          "type": "address"
        },
        {
          "internalType": "address",
          "name": "to",
          "type": "address"
        },
        {
          "internalType": "uint256",
          "name": "tokenId",
          "type": "uint256"
        }
      ],
      "name": "safeTransferFrom",
      "outputs": [],
      "stateMutability": "nonpayable",
      "type": "function"
    },
    {
      "inputs": [
        {
          "internalType": "address",
          "name": "from",
          "type": "address"
        },
        {
          "internalType": "address",
          "name": "to",
          "type": "address"
        },
        {
          "internalType": "uint256",
          "name": "tokenId",
          "type": "uint256"
        },
        {
          "internalType": "bytes",
          "name": "_data",
          "type": "bytes"
        }
      ],
      "name": "safeTransferFrom",
      "outputs": [],
      "stateMutability": "nonpayable",
      "type": "function"
    },
    {
      "inputs": [
        {
          "internalType": "address",
          "name": "operator",
          "type": "address"
        },
        {
          "internalType": "bool",
          "name": "approved",
          "type": "bool"
        }
      ],
      "name": "setApprovalForAll",
      "outputs": [],
      "stateMutability": "nonpayable",
      "type": "function"
    },
    {
      "inputs": [
        {
          "internalType": "bytes4",
          "name": "interfaceId",
          "type": "bytes4"
        }
      ],
      "name": "supportsInterface",
      "outputs": [
        {
          "internalType": "bool",
          "name": "",
          "type": "bool"
        }
      ],
      "stateMutability": "view",
      "type": "function"
    },
    {
      "inputs": [],
      "name": "symbol",
      "outputs": [
        {
          "internalType": "string",
          "name": "",
          "type": "string"
        }
      ],
      "stateMutability": "view",
      "type": "function"
    },
    {
      "inputs": [
        {
          "internalType": "uint256",
          "name": "index",
          "type": "uint256"
        }
      ],
      "name": "tokenByIndex",
      "outputs": [
        {
          "internalType": "uint256",
          "name": "",
          "type": "uint256"
        }
      ],
      "stateMutability": "view",
      "type": "function"
    },
    {
      "inputs": [
        {
          "internalType": "address",
          "name": "owner",
          "type": "address"
        },
        {
          "internalType": "uint256",
          "name": "index",
          "type": "uint256"
        }
      ],
      "name": "tokenOfOwnerByIndex",
      "outputs": [
        {
          "internalType": "uint256",
          "name": "",
          "type": "uint256"
        }
      ],
      "stateMutability": "view",
      "type": "function"
    },
    {
      "inputs": [
        {
          "internalType": "uint256",
          "name": "tokenId",
          "type": "uint256"
        }
      ],
      "name": "tokenURI",
      "outputs": [
        {
          "internalType": "string",
          "name": "",
          "type": "string"
        }
      ],
      "stateMutability": "view",
      "type": "function"
    },
    {
      "inputs": [],
      "name": "totalSupply",
      "outputs": [
        {
          "internalType": "uint256",
          "name": "",
          "type": "uint256"
        }
      ],
      "stateMutability": "view",
      "type": "function"
    },
    {
      "inputs": [
        {
          "internalType": "address",
          "name": "from",
          "type": "address"
        },
        {
          "internalType": "address",
          "name": "to",
          "type": "address"
        },
        {
          "internalType": "uint256",
          "name": "tokenId",
          "type": "uint256"
        }
      ],
      "name": "transferFrom",
      "outputs": [],
      "stateMutability": "nonpayable",
      "type": "function"
    }
  ],
  "bytecode": "0x6080604052612711600b553480156200001757600080fd5b5060405162004b2d38038062004b2d83398181016040528101906200003d919062000cbb565b6040518060400160405280600781526020017f4e756d62657273000000000000000000000000000000000000000000000000008152506040518060400160405280600181526020017f4e000000000000000000000000000000000000000000000000000000000000008152508160009080519060200190620000c192919062000b3b565b508060019080519060200190620000da92919062000b3b565b5050506001600a8190555060005b600a81101562000143576200012d620001066200014b60201b60201c565b8383600a81106200011c576200011b620011f9565b5b60200201516200015360201b60201c565b80806200013a906200111e565b915050620000e8565b50506200139b565b600033905090565b620001758282604051806020016040528060008152506200017960201b60201c565b5050565b6200018b8383620001e760201b60201c565b620001a06000848484620003cd60201b60201c565b620001e2576040517f08c379a0000000000000000000000000000000000000000000000000000000008152600401620001d99062000e73565b60405180910390fd5b505050565b600073ffffffffffffffffffffffffffffffffffffffff168273ffffffffffffffffffffffffffffffffffffffff1614156200025a576040517f08c379a0000000000000000000000000000000000000000000000000000000008152600401620002519062000ed9565b60405180910390fd5b6200026b816200058760201b60201c565b15620002ae576040517f08c379a0000000000000000000000000000000000000000000000000000000008152600401620002a59062000e95565b60405180910390fd5b620002c260008383620005f360201b60201c565b6001600360008473ffffffffffffffffffffffffffffffffffffffff1673ffffffffffffffffffffffffffffffffffffffff168152602001908152602001600020600082825462000314919062000f7a565b92505081905550816002600083815260200190815260200160002060006101000a81548173ffffffffffffffffffffffffffffffffffffffff021916908373ffffffffffffffffffffffffffffffffffffffff160217905550808273ffffffffffffffffffffffffffffffffffffffff16600073ffffffffffffffffffffffffffffffffffffffff167fddf252ad1be2c89b69c2b068fc378daa952ba7f163c4a11628f55a4df523b3ef60405160405180910390a45050565b6000620003fb8473ffffffffffffffffffffffffffffffffffffffff166200073a60201b62000f591760201c565b156200057a578373ffffffffffffffffffffffffffffffffffffffff1663150b7a026200042d6200014b60201b60201c565b8786866040518563ffffffff1660e01b815260040162000451949392919062000e1f565b602060405180830381600087803b1580156200046c57600080fd5b505af1925050508015620004a057506040513d601f19601f820116820180604052508101906200049d919062000cee565b60015b62000529573d8060008114620004d3576040519150601f19603f3d011682016040523d82523d6000602084013e620004d8565b606091505b5060008151141562000521576040517f08c379a0000000000000000000000000000000000000000000000000000000008152600401620005189062000e73565b60405180910390fd5b805181602001fd5b63150b7a0260e01b7bffffffffffffffffffffffffffffffffffffffffffffffffffffffff1916817bffffffffffffffffffffffffffffffffffffffffffffffffffffffff1916149150506200057f565b600190505b949350505050565b60008073ffffffffffffffffffffffffffffffffffffffff166002600084815260200190815260200160002060009054906101000a900473ffffffffffffffffffffffffffffffffffffffff1673ffffffffffffffffffffffffffffffffffffffff1614159050919050565b6200060b8383836200074d60201b62000f6c1760201c565b600073ffffffffffffffffffffffffffffffffffffffff168373ffffffffffffffffffffffffffffffffffffffff161415620006585762000652816200075260201b60201c565b620006a0565b8173ffffffffffffffffffffffffffffffffffffffff168373ffffffffffffffffffffffffffffffffffffffff16146200069f576200069e83826200079b60201b60201c565b5b5b600073ffffffffffffffffffffffffffffffffffffffff168273ffffffffffffffffffffffffffffffffffffffff161415620006ed57620006e7816200091860201b60201c565b62000735565b8273ffffffffffffffffffffffffffffffffffffffff168273ffffffffffffffffffffffffffffffffffffffff16146200073457620007338282620009f460201b60201c565b5b5b505050565b600080823b905060008111915050919050565b505050565b6008805490506009600083815260200190815260200160002081905550600881908060018154018082558091505060019003906000526020600020016000909190919091505550565b60006001620007b58462000a8060201b620009f21760201c565b620007c1919062000fd7565b9050600060076000848152602001908152602001600020549050818114620008a7576000600660008673ffffffffffffffffffffffffffffffffffffffff1673ffffffffffffffffffffffffffffffffffffffff168152602001908152602001600020600084815260200190815260200160002054905080600660008773ffffffffffffffffffffffffffffffffffffffff1673ffffffffffffffffffffffffffffffffffffffff168152602001908152602001600020600084815260200190815260200160002081905550816007600083815260200190815260200160002081905550505b6007600084815260200190815260200160002060009055600660008573ffffffffffffffffffffffffffffffffffffffff1673ffffffffffffffffffffffffffffffffffffffff16815260200190815260200160002060008381526020019081526020016000206000905550505050565b600060016008805490506200092e919062000fd7565b9050600060096000848152602001908152602001600020549050600060088381548110620009615762000960620011f9565b5b906000526020600020015490508060088381548110620009865762000985620011f9565b5b906000526020600020018190555081600960008381526020019081526020016000208190555060096000858152602001908152602001600020600090556008805480620009d857620009d7620011ca565b5b6001900381819060005260206000200160009055905550505050565b600062000a0c8362000a8060201b620009f21760201c565b905081600660008573ffffffffffffffffffffffffffffffffffffffff1673ffffffffffffffffffffffffffffffffffffffff168152602001908152602001600020600083815260200190815260200160002081905550806007600084815260200190815260200160002081905550505050565b60008073ffffffffffffffffffffffffffffffffffffffff168273ffffffffffffffffffffffffffffffffffffffff16141562000af4576040517f08c379a000000000000000000000000000000000000000000000000000000000815260040162000aeb9062000eb7565b60405180910390fd5b600360008373ffffffffffffffffffffffffffffffffffffffff1673ffffffffffffffffffffffffffffffffffffffff168152602001908152602001600020549050919050565b82805462000b4990620010b2565b90600052602060002090601f01602090048101928262000b6d576000855562000bb9565b82601f1062000b8857805160ff191683800117855562000bb9565b8280016001018555821562000bb9579182015b8281111562000bb857825182559160200191906001019062000b9b565b5b50905062000bc8919062000bcc565b5090565b5b8082111562000be757600081600090555060010162000bcd565b5090565b600062000c0262000bfc8462000f24565b62000efb565b9050808285602086028201111562000c1f5762000c1e6200125c565b5b60005b8581101562000c53578162000c38888262000ca4565b84526020840193506020830192505060018101905062000c22565b5050509392505050565b600082601f83011262000c755762000c7462001257565b5b600a62000c8484828562000beb565b91505092915050565b60008151905062000c9e8162001367565b92915050565b60008151905062000cb58162001381565b92915050565b6000610140828403121562000cd55762000cd462001261565b5b600062000ce58482850162000c5d565b91505092915050565b60006020828403121562000d075762000d0662001261565b5b600062000d178482850162000c8d565b91505092915050565b62000d2b8162001012565b82525050565b600062000d3e8262000f4d565b62000d4a818562000f58565b935062000d5c8185602086016200107c565b62000d678162001266565b840191505092915050565b600062000d8160328362000f69565b915062000d8e8262001277565b604082019050919050565b600062000da8601c8362000f69565b915062000db582620012c6565b602082019050919050565b600062000dcf602a8362000f69565b915062000ddc82620012ef565b604082019050919050565b600062000df660208362000f69565b915062000e03826200133e565b602082019050919050565b62000e198162001072565b82525050565b600060808201905062000e36600083018762000d20565b62000e45602083018662000d20565b62000e54604083018562000e0e565b818103606083015262000e68818462000d31565b905095945050505050565b6000602082019050818103600083015262000e8e8162000d72565b9050919050565b6000602082019050818103600083015262000eb08162000d99565b9050919050565b6000602082019050818103600083015262000ed28162000dc0565b9050919050565b6000602082019050818103600083015262000ef48162000de7565b9050919050565b600062000f0762000f1a565b905062000f158282620010e8565b919050565b6000604051905090565b600067ffffffffffffffff82111562000f425762000f4162001228565b5b602082029050919050565b600081519050919050565b600082825260208201905092915050565b600082825260208201905092915050565b600062000f878262001072565b915062000f948362001072565b9250827fffffffffffffffffffffffffffffffffffffffffffffffffffffffffffffffff0382111562000fcc5762000fcb6200116c565b5b828201905092915050565b600062000fe48262001072565b915062000ff18362001072565b9250828210156200100757620010066200116c565b5b828203905092915050565b60006200101f8262001052565b9050919050565b60007fffffffff0000000000000000000000000000000000000000000000000000000082169050919050565b600073ffffffffffffffffffffffffffffffffffffffff82169050919050565b6000819050919050565b60005b838110156200109c5780820151818401526020810190506200107f565b83811115620010ac576000848401525b50505050565b60006002820490506001821680620010cb57607f821691505b60208210811415620010e257620010e16200119b565b5b50919050565b620010f38262001266565b810181811067ffffffffffffffff8211171562001115576200111462001228565b5b80604052505050565b60006200112b8262001072565b91507fffffffffffffffffffffffffffffffffffffffffffffffffffffffffffffffff8214156200116157620011606200116c565b5b600182019050919050565b7f4e487b7100000000000000000000000000000000000000000000000000000000600052601160045260246000fd5b7f4e487b7100000000000000000000000000000000000000000000000000000000600052602260045260246000fd5b7f4e487b7100000000000000000000000000000000000000000000000000000000600052603160045260246000fd5b7f4e487b7100000000000000000000000000000000000000000000000000000000600052603260045260246000fd5b7f4e487b7100000000000000000000000000000000000000000000000000000000600052604160045260246000fd5b600080fd5b600080fd5b600080fd5b6000601f19601f8301169050919050565b7f4552433732313a207472616e7366657220746f206e6f6e20455243373231526560008201527f63656976657220696d706c656d656e7465720000000000000000000000000000602082015250565b7f4552433732313a20746f6b656e20616c7265616479206d696e74656400000000600082015250565b7f4552433732313a2062616c616e636520717565727920666f7220746865207a6560008201527f726f206164647265737300000000000000000000000000000000000000000000602082015250565b7f4552433732313a206d696e7420746f20746865207a65726f2061646472657373600082015250565b620013728162001026565b81146200137e57600080fd5b50565b6200138c8162001072565b81146200139857600080fd5b50565b61378280620013ab6000396000f3fe608060405234801561001057600080fd5b50600436106101215760003560e01c806342842e0e116100ad57806395d89b411161007157806395d89b411461032e578063a22cb4651461034c578063b88d4fde14610368578063c87b56dd14610384578063e985e9c5146103b457610121565b806342842e0e146102525780634f6ccce71461026e5780636352211e1461029e57806370a08231146102ce5780637f4ef9d4146102fe57610121565b80631249c58b116100f45780631249c58b146101c057806318160ddd146101ca57806323b872dd146101e85780632f745c5914610204578063341928c51461023457610121565b806301ffc9a71461012657806306fdde0314610156578063081812fc14610174578063095ea7b3146101a4575b600080fd5b610140600480360381019061013b919061237d565b6103e4565b60405161014d91906128e4565b60405180910390f35b61015e61045e565b60405161016b91906128ff565b60405180910390f35b61018e600480360381019061018991906123d7565b6104f0565b60405161019b919061287d565b60405180910390f35b6101be60048036038101906101b9919061233d565b610575565b005b6101c861068d565b005b6101d2610797565b6040516101df9190612b41565b60405180910390f35b61020260048036038101906101fd9190612227565b6107a4565b005b61021e6004803603810190610219919061233d565b610804565b60405161022b9190612b41565b60405180910390f35b61023c6108a9565b6040516102499190612b41565b60405180910390f35b61026c60048036038101906102679190612227565b6108af565b005b610288600480360381019061028391906123d7565b6108cf565b6040516102959190612b41565b60405180910390f35b6102b860048036038101906102b391906123d7565b610940565b6040516102c5919061287d565b60405180910390f35b6102e860048036038101906102e391906121ba565b6109f2565b6040516102f59190612b41565b60405180910390f35b610318600480360381019061031391906123d7565b610aaa565b60405161032591906128ff565b60405180910390f35b610336610abc565b60405161034391906128ff565b60405180910390f35b610366600480360381019061036191906122fd565b610b4e565b005b610382600480360381019061037d919061227a565b610ccf565b005b61039e600480360381019061039991906123d7565b610d31565b6040516103ab91906128ff565b60405180910390f35b6103ce60048036038101906103c991906121e7565b610ec5565b6040516103db91906128e4565b60405180910390f35b60007f780e9d63000000000000000000000000000000000000000000000000000000007bffffffffffffffffffffffffffffffffffffffffffffffffffffffff1916827bffffffffffffffffffffffffffffffffffffffffffffffffffffffff19161480610457575061045682610f71565b5b9050919050565b60606000805461046d90612dc0565b80601f016020809104026020016040519081016040528092919081815260200182805461049990612dc0565b80156104e65780601f106104bb576101008083540402835291602001916104e6565b820191906000526020600020905b8154815290600101906020018083116104c957829003601f168201915b5050505050905090565b60006104fb82611053565b61053a576040517f08c379a000000000000000000000000000000000000000000000000000000000815260040161053190612a61565b60405180910390fd5b6004600083815260200190815260200160002060009054906101000a900473ffffffffffffffffffffffffffffffffffffffff169050919050565b600061058082610940565b90508073ffffffffffffffffffffffffffffffffffffffff168373ffffffffffffffffffffffffffffffffffffffff1614156105f1576040517f08c379a00000000000000000000000000000000000000000000000000000000081526004016105e890612ac1565b60405180910390fd5b8073ffffffffffffffffffffffffffffffffffffffff166106106110bf565b73ffffffffffffffffffffffffffffffffffffffff16148061063f575061063e816106396110bf565b610ec5565b5b61067e576040517f08c379a0000000000000000000000000000000000000000000000000000000008152600401610675906129e1565b60405180910390fd5b61068883836110c7565b505050565b6002600a5414156106d3576040517f08c379a00000000000000000000000000000000000000000000000000000000081526004016106ca90612b21565b60405180910390fd5b6002600a81905550600c54431415610720576040517f08c379a000000000000000000000000000000000000000000000000000000000815260040161071790612a81565b60405180910390fd5b43600c819055506000610734600b54611180565b90506000610744826127106111b3565b90505b61075081611053565b156107735761075e82611180565b915061076c826127106111b3565b9050610747565b80600b8190555061078b6107856110bf565b826111c9565b50506001600a81905550565b6000600880549050905090565b6107b56107af6110bf565b826111e7565b6107f4576040517f08c379a00000000000000000000000000000000000000000000000000000000081526004016107eb90612ae1565b60405180910390fd5b6107ff8383836112c5565b505050565b600061080f836109f2565b8210610850576040517f08c379a000000000000000000000000000000000000000000000000000000000815260040161084790612921565b60405180910390fd5b600660008473ffffffffffffffffffffffffffffffffffffffff1673ffffffffffffffffffffffffffffffffffffffff168152602001908152602001600020600083815260200190815260200160002054905092915050565b600c5481565b6108ca83838360405180602001604052806000815250610ccf565b505050565b60006108d9610797565b821061091a576040517f08c379a000000000000000000000000000000000000000000000000000000000815260040161091190612b01565b60405180910390fd5b6008828154811061092e5761092d612f63565b5b90600052602060002001549050919050565b6000806002600084815260200190815260200160002060009054906101000a900473ffffffffffffffffffffffffffffffffffffffff169050600073ffffffffffffffffffffffffffffffffffffffff168173ffffffffffffffffffffffffffffffffffffffff1614156109e9576040517f08c379a00000000000000000000000000000000000000000000000000000000081526004016109e090612a21565b60405180910390fd5b80915050919050565b60008073ffffffffffffffffffffffffffffffffffffffff168273ffffffffffffffffffffffffffffffffffffffff161415610a63576040517f08c379a0000000000000000000000000000000000000000000000000000000008152600401610a5a90612a01565b60405180910390fd5b600360008373ffffffffffffffffffffffffffffffffffffffff1673ffffffffffffffffffffffffffffffffffffffff168152602001908152602001600020549050919050565b6060610ab582611521565b9050919050565b606060018054610acb90612dc0565b80601f0160208091040260200160405190810160405280929190818152602001828054610af790612dc0565b8015610b445780601f10610b1957610100808354040283529160200191610b44565b820191906000526020600020905b815481529060010190602001808311610b2757829003601f168201915b5050505050905090565b610b566110bf565b73ffffffffffffffffffffffffffffffffffffffff168273ffffffffffffffffffffffffffffffffffffffff161415610bc4576040517f08c379a0000000000000000000000000000000000000000000000000000000008152600401610bbb906129a1565b60405180910390fd5b8060056000610bd16110bf565b73ffffffffffffffffffffffffffffffffffffffff1673ffffffffffffffffffffffffffffffffffffffff16815260200190815260200160002060008473ffffffffffffffffffffffffffffffffffffffff1673ffffffffffffffffffffffffffffffffffffffff16815260200190815260200160002060006101000a81548160ff0219169083151502179055508173ffffffffffffffffffffffffffffffffffffffff16610c7e6110bf565b73ffffffffffffffffffffffffffffffffffffffff167f17307eab39ab6107e8899845ad3d59bd9653f200f220920489ca2b5937696c3183604051610cc391906128e4565b60405180910390a35050565b610ce0610cda6110bf565b836111e7565b610d1f576040517f08c379a0000000000000000000000000000000000000000000000000000000008152600401610d1690612ae1565b60405180910390fd5b610d2b84848484611682565b50505050565b6060610d3b6120ba565b604051806101600160405280610133815260200161361a610133913981600060038110610d6b57610d6a612f63565b5b6020020181905250610d7c83610aaa565b81600160038110610d9057610d8f612f63565b5b60200201819052506040518060400160405280600d81526020017f3c2f746578743e3c2f7376673e0000000000000000000000000000000000000081525081600260038110610de257610de1612f63565b5b6020020181905250600081600060038110610e0057610dff612f63565b5b602002015182600160038110610e1957610e18612f63565b5b602002015183600260038110610e3257610e31612f63565b5b6020020151604051602001610e49939291906127ca565b60405160208183030381529060405290506000610e96610e6886611521565b610e71846116de565b604051602001610e8292919061281d565b6040516020818303038152906040526116de565b905080604051602001610ea991906127fb565b6040516020818303038152906040529150819350505050919050565b6000600560008473ffffffffffffffffffffffffffffffffffffffff1673ffffffffffffffffffffffffffffffffffffffff16815260200190815260200160002060008373ffffffffffffffffffffffffffffffffffffffff1673ffffffffffffffffffffffffffffffffffffffff16815260200190815260200160002060009054906101000a900460ff16905092915050565b600080823b905060008111915050919050565b505050565b60007f80ac58cd000000000000000000000000000000000000000000000000000000007bffffffffffffffffffffffffffffffffffffffffffffffffffffffff1916827bffffffffffffffffffffffffffffffffffffffffffffffffffffffff1916148061103c57507f5b5e139f000000000000000000000000000000000000000000000000000000007bffffffffffffffffffffffffffffffffffffffffffffffffffffffff1916827bffffffffffffffffffffffffffffffffffffffffffffffffffffffff1916145b8061104c575061104b82611876565b5b9050919050565b60008073ffffffffffffffffffffffffffffffffffffffff166002600084815260200190815260200160002060009054906101000a900473ffffffffffffffffffffffffffffffffffffffff1673ffffffffffffffffffffffffffffffffffffffff1614159050919050565b600033905090565b816004600083815260200190815260200160002060006101000a81548173ffffffffffffffffffffffffffffffffffffffff021916908373ffffffffffffffffffffffffffffffffffffffff160217905550808273ffffffffffffffffffffffffffffffffffffffff1661113a83610940565b73ffffffffffffffffffffffffffffffffffffffff167f8c5be1e5ebec7d5bd14f71427d1e84f3dd0314c0f7b2291e5b200ac8c7c3b92560405160405180910390a45050565b6000816040516020016111939190612862565b6040516020818303038152906040528051906020012060001c9050919050565b600081836111c19190612e76565b905092915050565b6111e38282604051806020016040528060008152506118e0565b5050565b60006111f282611053565b611231576040517f08c379a0000000000000000000000000000000000000000000000000000000008152600401611228906129c1565b60405180910390fd5b600061123c83610940565b90508073ffffffffffffffffffffffffffffffffffffffff168473ffffffffffffffffffffffffffffffffffffffff1614806112ab57508373ffffffffffffffffffffffffffffffffffffffff16611293846104f0565b73ffffffffffffffffffffffffffffffffffffffff16145b806112bc57506112bb8185610ec5565b5b91505092915050565b8273ffffffffffffffffffffffffffffffffffffffff166112e582610940565b73ffffffffffffffffffffffffffffffffffffffff161461133b576040517f08c379a000000000000000000000000000000000000000000000000000000000815260040161133290612aa1565b60405180910390fd5b600073ffffffffffffffffffffffffffffffffffffffff168273ffffffffffffffffffffffffffffffffffffffff1614156113ab576040517f08c379a00000000000000000000000000000000000000000000000000000000081526004016113a290612981565b60405180910390fd5b6113b683838361193b565b6113c16000826110c7565b6001600360008573ffffffffffffffffffffffffffffffffffffffff1673ffffffffffffffffffffffffffffffffffffffff16815260200190815260200160002060008282546114119190612cd6565b925050819055506001600360008473ffffffffffffffffffffffffffffffffffffffff1673ffffffffffffffffffffffffffffffffffffffff16815260200190815260200160002060008282546114689190612bf5565b92505081905550816002600083815260200190815260200160002060006101000a81548173ffffffffffffffffffffffffffffffffffffffff021916908373ffffffffffffffffffffffffffffffffffffffff160217905550808273ffffffffffffffffffffffffffffffffffffffff168473ffffffffffffffffffffffffffffffffffffffff167fddf252ad1be2c89b69c2b068fc378daa952ba7f163c4a11628f55a4df523b3ef60405160405180910390a4505050565b60606000821415611569576040518060400160405280600181526020017f3000000000000000000000000000000000000000000000000000000000000000815250905061167d565b600082905060005b6000821461159b57808061158490612e23565b915050600a826115949190612c4b565b9150611571565b60008167ffffffffffffffff8111156115b7576115b6612f92565b5b6040519080825280601f01601f1916602001820160405280156115e95781602001600182028036833780820191505090505b5090505b60008514611676576001826116029190612cd6565b9150600a856116119190612e76565b603061161d9190612bf5565b60f81b81838151811061163357611632612f63565b5b60200101907effffffffffffffffffffffffffffffffffffffffffffffffffffffffffffff1916908160001a905350600a8561166f9190612c4b565b94506115ed565b8093505050505b919050565b61168d8484846112c5565b61169984848484611a4f565b6116d8576040517f08c379a00000000000000000000000000000000000000000000000000000000081526004016116cf90612941565b60405180910390fd5b50505050565b606060008251905060008114156117075760405180602001604052806000815250915050611871565b600060036002836117189190612bf5565b6117229190612c4b565b600461172e9190612c7c565b9050600060208261173f9190612bf5565b67ffffffffffffffff81111561175857611757612f92565b5b6040519080825280601f01601f19166020018201604052801561178a5781602001600182028036833780820191505090505b50905060006040518060600160405280604081526020016135da604091399050600181016020830160005b8681101561182e5760038101905062ffffff818a015116603f8160121c168401518060081b905060ff603f83600c1c1686015116810190508060081b905060ff603f8360061c1686015116810190508060081b905060ff603f831686015116810190508060e01b905080845260048401935050506117b5565b506003860660018114611848576002811461185857611863565b613d3d60f01b6002830352611863565b603d60f81b60018303525b508484525050819450505050505b919050565b60007f01ffc9a7000000000000000000000000000000000000000000000000000000007bffffffffffffffffffffffffffffffffffffffffffffffffffffffff1916827bffffffffffffffffffffffffffffffffffffffffffffffffffffffff1916149050919050565b6118ea8383611be6565b6118f76000848484611a4f565b611936576040517f08c379a000000000000000000000000000000000000000000000000000000000815260040161192d90612941565b60405180910390fd5b505050565b611946838383610f6c565b600073ffffffffffffffffffffffffffffffffffffffff168373ffffffffffffffffffffffffffffffffffffffff1614156119895761198481611db4565b6119c8565b8173ffffffffffffffffffffffffffffffffffffffff168373ffffffffffffffffffffffffffffffffffffffff16146119c7576119c68382611dfd565b5b5b600073ffffffffffffffffffffffffffffffffffffffff168273ffffffffffffffffffffffffffffffffffffffff161415611a0b57611a0681611f6a565b611a4a565b8273ffffffffffffffffffffffffffffffffffffffff168273ffffffffffffffffffffffffffffffffffffffff1614611a4957611a48828261203b565b5b5b505050565b6000611a708473ffffffffffffffffffffffffffffffffffffffff16610f59565b15611bd9578373ffffffffffffffffffffffffffffffffffffffff1663150b7a02611a996110bf565b8786866040518563ffffffff1660e01b8152600401611abb9493929190612898565b602060405180830381600087803b158015611ad557600080fd5b505af1925050508015611b0657506040513d601f19601f82011682018060405250810190611b0391906123aa565b60015b611b89573d8060008114611b36576040519150601f19603f3d011682016040523d82523d6000602084013e611b3b565b606091505b50600081511415611b81576040517f08c379a0000000000000000000000000000000000000000000000000000000008152600401611b7890612941565b60405180910390fd5b805181602001fd5b63150b7a0260e01b7bffffffffffffffffffffffffffffffffffffffffffffffffffffffff1916817bffffffffffffffffffffffffffffffffffffffffffffffffffffffff191614915050611bde565b600190505b949350505050565b600073ffffffffffffffffffffffffffffffffffffffff168273ffffffffffffffffffffffffffffffffffffffff161415611c56576040517f08c379a0000000000000000000000000000000000000000000000000000000008152600401611c4d90612a41565b60405180910390fd5b611c5f81611053565b15611c9f576040517f08c379a0000000000000000000000000000000000000000000000000000000008152600401611c9690612961565b60405180910390fd5b611cab6000838361193b565b6001600360008473ffffffffffffffffffffffffffffffffffffffff1673ffffffffffffffffffffffffffffffffffffffff1681526020019081526020016000206000828254611cfb9190612bf5565b92505081905550816002600083815260200190815260200160002060006101000a81548173ffffffffffffffffffffffffffffffffffffffff021916908373ffffffffffffffffffffffffffffffffffffffff160217905550808273ffffffffffffffffffffffffffffffffffffffff16600073ffffffffffffffffffffffffffffffffffffffff167fddf252ad1be2c89b69c2b068fc378daa952ba7f163c4a11628f55a4df523b3ef60405160405180910390a45050565b6008805490506009600083815260200190815260200160002081905550600881908060018154018082558091505060019003906000526020600020016000909190919091505550565b60006001611e0a846109f2565b611e149190612cd6565b9050600060076000848152602001908152602001600020549050818114611ef9576000600660008673ffffffffffffffffffffffffffffffffffffffff1673ffffffffffffffffffffffffffffffffffffffff168152602001908152602001600020600084815260200190815260200160002054905080600660008773ffffffffffffffffffffffffffffffffffffffff1673ffffffffffffffffffffffffffffffffffffffff168152602001908152602001600020600084815260200190815260200160002081905550816007600083815260200190815260200160002081905550505b6007600084815260200190815260200160002060009055600660008573ffffffffffffffffffffffffffffffffffffffff1673ffffffffffffffffffffffffffffffffffffffff16815260200190815260200160002060008381526020019081526020016000206000905550505050565b60006001600880549050611f7e9190612cd6565b9050600060096000848152602001908152602001600020549050600060088381548110611fae57611fad612f63565b5b906000526020600020015490508060088381548110611fd057611fcf612f63565b5b90600052602060002001819055508160096000838152602001908152602001600020819055506009600085815260200190815260200160002060009055600880548061201f5761201e612f34565b5b6001900381819060005260206000200160009055905550505050565b6000612046836109f2565b905081600660008573ffffffffffffffffffffffffffffffffffffffff1673ffffffffffffffffffffffffffffffffffffffff168152602001908152602001600020600083815260200190815260200160002081905550806007600084815260200190815260200160002081905550505050565b60405180606001604052806003905b60608152602001906001900390816120c95790505090565b60006120f46120ef84612b81565b612b5c565b9050828152602081018484840111156121105761210f612fc6565b5b61211b848285612d7e565b509392505050565b6000813590506121328161357d565b92915050565b60008135905061214781613594565b92915050565b60008135905061215c816135ab565b92915050565b600081519050612171816135ab565b92915050565b600082601f83011261218c5761218b612fc1565b5b813561219c8482602086016120e1565b91505092915050565b6000813590506121b4816135c2565b92915050565b6000602082840312156121d0576121cf612fd0565b5b60006121de84828501612123565b91505092915050565b600080604083850312156121fe576121fd612fd0565b5b600061220c85828601612123565b925050602061221d85828601612123565b9150509250929050565b6000806000606084860312156122405761223f612fd0565b5b600061224e86828701612123565b935050602061225f86828701612123565b9250506040612270868287016121a5565b9150509250925092565b6000806000806080858703121561229457612293612fd0565b5b60006122a287828801612123565b94505060206122b387828801612123565b93505060406122c4878288016121a5565b925050606085013567ffffffffffffffff8111156122e5576122e4612fcb565b5b6122f187828801612177565b91505092959194509250565b6000806040838503121561231457612313612fd0565b5b600061232285828601612123565b925050602061233385828601612138565b9150509250929050565b6000806040838503121561235457612353612fd0565b5b600061236285828601612123565b9250506020612373858286016121a5565b9150509250929050565b60006020828403121561239357612392612fd0565b5b60006123a18482850161214d565b91505092915050565b6000602082840312156123c0576123bf612fd0565b5b60006123ce84828501612162565b91505092915050565b6000602082840312156123ed576123ec612fd0565b5b60006123fb848285016121a5565b91505092915050565b61240d81612d0a565b82525050565b61241c81612d1c565b82525050565b600061242d82612bb2565b6124378185612bc8565b9350612447818560208601612d8d565b61245081612fd5565b840191505092915050565b600061246682612bbd565b6124708185612bd9565b9350612480818560208601612d8d565b61248981612fd5565b840191505092915050565b600061249f82612bbd565b6124a98185612bea565b93506124b9818560208601612d8d565b80840191505092915050565b60006124d2602b83612bd9565b91506124dd82612fe6565b604082019050919050565b60006124f5603283612bd9565b915061250082613035565b604082019050919050565b6000612518601c83612bd9565b915061252382613084565b602082019050919050565b600061253b602483612bd9565b9150612546826130ad565b604082019050919050565b600061255e601983612bd9565b9150612569826130fc565b602082019050919050565b6000612581602c83612bd9565b915061258c82613125565b604082019050919050565b60006125a4607883612bea565b91506125af82613174565b607882019050919050565b60006125c7603883612bd9565b91506125d28261320f565b604082019050919050565b60006125ea602a83612bd9565b91506125f58261325e565b604082019050919050565b600061260d602983612bd9565b9150612618826132ad565b604082019050919050565b6000612630600283612bea565b915061263b826132fc565b600282019050919050565b6000612653602083612bd9565b915061265e82613325565b602082019050919050565b6000612676602c83612bd9565b91506126818261334e565b604082019050919050565b6000612699601e83612bd9565b91506126a48261339d565b602082019050919050565b60006126bc602983612bd9565b91506126c7826133c6565b604082019050919050565b60006126df602183612bd9565b91506126ea82613415565b604082019050919050565b6000612702601d83612bea565b915061270d82613464565b601d82019050919050565b6000612725603183612bd9565b91506127308261348d565b604082019050919050565b6000612748602c83612bd9565b9150612753826134dc565b604082019050919050565b600061276b601f83612bd9565b91506127768261352b565b602082019050919050565b600061278e601183612bea565b915061279982613554565b601182019050919050565b6127ad81612d74565b82525050565b6127c46127bf82612d74565b612e6c565b82525050565b60006127d68286612494565b91506127e28285612494565b91506127ee8284612494565b9150819050949350505050565b6000612806826126f5565b91506128128284612494565b915081905092915050565b600061282882612781565b91506128348285612494565b915061283f82612597565b915061284b8284612494565b915061285682612623565b91508190509392505050565b600061286e82846127b3565b60208201915081905092915050565b60006020820190506128926000830184612404565b92915050565b60006080820190506128ad6000830187612404565b6128ba6020830186612404565b6128c760408301856127a4565b81810360608301526128d98184612422565b905095945050505050565b60006020820190506128f96000830184612413565b92915050565b60006020820190508181036000830152612919818461245b565b905092915050565b6000602082019050818103600083015261293a816124c5565b9050919050565b6000602082019050818103600083015261295a816124e8565b9050919050565b6000602082019050818103600083015261297a8161250b565b9050919050565b6000602082019050818103600083015261299a8161252e565b9050919050565b600060208201905081810360008301526129ba81612551565b9050919050565b600060208201905081810360008301526129da81612574565b9050919050565b600060208201905081810360008301526129fa816125ba565b9050919050565b60006020820190508181036000830152612a1a816125dd565b9050919050565b60006020820190508181036000830152612a3a81612600565b9050919050565b60006020820190508181036000830152612a5a81612646565b9050919050565b60006020820190508181036000830152612a7a81612669565b9050919050565b60006020820190508181036000830152612a9a8161268c565b9050919050565b60006020820190508181036000830152612aba816126af565b9050919050565b60006020820190508181036000830152612ada816126d2565b9050919050565b60006020820190508181036000830152612afa81612718565b9050919050565b60006020820190508181036000830152612b1a8161273b565b9050919050565b60006020820190508181036000830152612b3a8161275e565b9050919050565b6000602082019050612b5660008301846127a4565b92915050565b6000612b66612b77565b9050612b728282612df2565b919050565b6000604051905090565b600067ffffffffffffffff821115612b9c57612b9b612f92565b5b612ba582612fd5565b9050602081019050919050565b600081519050919050565b600081519050919050565b600082825260208201905092915050565b600082825260208201905092915050565b600081905092915050565b6000612c0082612d74565b9150612c0b83612d74565b9250827fffffffffffffffffffffffffffffffffffffffffffffffffffffffffffffffff03821115612c4057612c3f612ea7565b5b828201905092915050565b6000612c5682612d74565b9150612c6183612d74565b925082612c7157612c70612ed6565b5b828204905092915050565b6000612c8782612d74565b9150612c9283612d74565b9250817fffffffffffffffffffffffffffffffffffffffffffffffffffffffffffffffff0483118215151615612ccb57612cca612ea7565b5b828202905092915050565b6000612ce182612d74565b9150612cec83612d74565b925082821015612cff57612cfe612ea7565b5b828203905092915050565b6000612d1582612d54565b9050919050565b60008115159050919050565b60007fffffffff0000000000000000000000000000000000000000000000000000000082169050919050565b600073ffffffffffffffffffffffffffffffffffffffff82169050919050565b6000819050919050565b82818337600083830152505050565b60005b83811015612dab578082015181840152602081019050612d90565b83811115612dba576000848401525b50505050565b60006002820490506001821680612dd857607f821691505b60208210811415612dec57612deb612f05565b5b50919050565b612dfb82612fd5565b810181811067ffffffffffffffff82111715612e1a57612e19612f92565b5b80604052505050565b6000612e2e82612d74565b91507fffffffffffffffffffffffffffffffffffffffffffffffffffffffffffffffff821415612e6157612e60612ea7565b5b600182019050919050565b6000819050919050565b6000612e8182612d74565b9150612e8c83612d74565b925082612e9c57612e9b612ed6565b5b828206905092915050565b7f4e487b7100000000000000000000000000000000000000000000000000000000600052601160045260246000fd5b7f4e487b7100000000000000000000000000000000000000000000000000000000600052601260045260246000fd5b7f4e487b7100000000000000000000000000000000000000000000000000000000600052602260045260246000fd5b7f4e487b7100000000000000000000000000000000000000000000000000000000600052603160045260246000fd5b7f4e487b7100000000000000000000000000000000000000000000000000000000600052603260045260246000fd5b7f4e487b7100000000000000000000000000000000000000000000000000000000600052604160045260246000fd5b600080fd5b600080fd5b600080fd5b600080fd5b6000601f19601f8301169050919050565b7f455243373231456e756d657261626c653a206f776e657220696e646578206f7560008201527f74206f6620626f756e6473000000000000000000000000000000000000000000602082015250565b7f4552433732313a207472616e7366657220746f206e6f6e20455243373231526560008201527f63656976657220696d706c656d656e7465720000000000000000000000000000602082015250565b7f4552433732313a20746f6b656e20616c7265616479206d696e74656400000000600082015250565b7f4552433732313a207472616e7366657220746f20746865207a65726f2061646460008201527f7265737300000000000000000000000000000000000000000000000000000000602082015250565b7f4552433732313a20617070726f766520746f2063616c6c657200000000000000600082015250565b7f4552433732313a206f70657261746f7220717565727920666f72206e6f6e657860008201527f697374656e7420746f6b656e0000000000000000000000000000000000000000602082015250565b7f222c20226465736372697074696f6e223a20224e756d62657273204e4654202d60008201527f205370616e7320746865206e756d62657273203120746f20393939392e204e6f60208201527f7468696e67206d6f726520746f2069742e222c2022696d616765223a2022646160408201527f74613a696d6167652f7376672b786d6c3b6261736536342c0000000000000000606082015250565b7f4552433732313a20617070726f76652063616c6c6572206973206e6f74206f7760008201527f6e6572206e6f7220617070726f76656420666f7220616c6c0000000000000000602082015250565b7f4552433732313a2062616c616e636520717565727920666f7220746865207a6560008201527f726f206164647265737300000000000000000000000000000000000000000000602082015250565b7f4552433732313a206f776e657220717565727920666f72206e6f6e657869737460008201527f656e7420746f6b656e0000000000000000000000000000000000000000000000602082015250565b7f227d000000000000000000000000000000000000000000000000000000000000600082015250565b7f4552433732313a206d696e7420746f20746865207a65726f2061646472657373600082015250565b7f4552433732313a20617070726f76656420717565727920666f72206e6f6e657860008201527f697374656e7420746f6b656e0000000000000000000000000000000000000000602082015250565b7f416c7265616479206f6e65206d696e7420696e207468697320626c6f636b0000600082015250565b7f4552433732313a207472616e73666572206f6620746f6b656e2074686174206960008201527f73206e6f74206f776e0000000000000000000000000000000000000000000000602082015250565b7f4552433732313a20617070726f76616c20746f2063757272656e74206f776e6560008201527f7200000000000000000000000000000000000000000000000000000000000000602082015250565b7f646174613a6170706c69636174696f6e2f6a736f6e3b6261736536342c000000600082015250565b7f4552433732313a207472616e736665722063616c6c6572206973206e6f74206f60008201527f776e6572206e6f7220617070726f766564000000000000000000000000000000602082015250565b7f455243373231456e756d657261626c653a20676c6f62616c20696e646578206f60008201527f7574206f6620626f756e64730000000000000000000000000000000000000000602082015250565b7f5265656e7472616e637947756172643a207265656e7472616e742063616c6c00600082015250565b7f7b226e616d65223a20224e756d62657220000000000000000000000000000000600082015250565b61358681612d0a565b811461359157600080fd5b50565b61359d81612d1c565b81146135a857600080fd5b50565b6135b481612d28565b81146135bf57600080fd5b50565b6135cb81612d74565b81146135d657600080fd5b5056fe4142434445464748494a4b4c4d4e4f505152535455565758595a6162636465666768696a6b6c6d6e6f707172737475767778797a303132333435363738392b2f3c73766720786d6c6e733d22687474703a2f2f7777772e77332e6f72672f323030302f73766722207072657365727665417370656374526174696f3d22784d696e594d696e206d656574222076696577426f783d223020302033353020333530223e3c7374796c653e2e62617365207b2066696c6c3a2077686974653b20666f6e742d66616d696c793a206d6f6e6f73706163653b20666f6e742d73697a653a20363070783b207d3c2f7374796c653e3c726563742077696474683d223130302522206865696768743d2231303025222066696c6c3d22626c61636b22202f3e3c7465787420783d223530252220793d223530252220646f6d696e616e742d626173656c696e653d226d6964646c652220746578742d616e63686f723d226d6964646c652220636c6173733d2262617365223ea2646970667358221220e39be7d233d0855be14e4896426587360bf5097007ee65b23153897ed475fb0564736f6c63430008070033",
  "linkReferences": {},
  "deployedLinkReferences": {}
}